:100000000C308A00AC2C0000FF00030E8301A1001D
:100010000A08A0008A010408A2007708A300780853
:10002000A4007908A5007A08A600831383128B1D0B
:100030001B280B1836280B1E1F288B1839288C30CC
:100040008400001C25280C183C2822088400230862
:10005000F7002408F8002508F9002608FA0020080F
:100060008A00210E8300FF0E7F0E09008A110A12FA
:100070008C298A110A1290298A110A1294290A10CD
:100080008A100A11820728340C34013406340C100B
:10009000201E3C28D222D020D220C4273E1F0A0096
:1000A0000C1020102026412B41224F294105000130
:1000B0005029C529C927CE20A824CE24C324CF1473
:1000C0000A000C10201EBC20CC20D2264110D618CD
:1000D0003E1F0A000C10201EBC20CC20D22641104E
:1000E00056193E1F0A000C1020285526D320C4277D
:1000F0005210C4220A002028D522522A4110C121C0
:10010000D424D6270A000C10201EBC214F27D4244B
:10011000CE2A41293E1F0A005029C529C927CE20D1
:10012000A824CE24C324CF140A000C102010201EB3
:10013000BC29D427501F3E050000C12AD427CD205A
:10014000D424C3273C050001CC20D620C4270A00B4
:10015000C12AD427CD20D424C3270A00CC20D620FE
:10016000C4273C050001C3224E2AD224C62AC72038
:10017000C4273C050001D4224D284529412A552990
:1001800041050001C3224E2AD224C62AC720C42713
:100190000A00D4224D284529412A5529411E0A002A
:1001A000CE24D6224C1E0A00D424C526D0270A000D
:1001B000CE24D6224C050001D424C526D0273C05E8
:1001C0000001B21AA02649273C0500013318A026D9
:1001D00049270A00B21AA02649270A003318A02688
:1001E00049273C050001B41AA02649273C05000117
:1001F000B51AA02649270A00B41AA02649270A00E2
:10020000B51AA02649273C050001CD2A5910C22065
:10021000CA273C050001C220CA270A00CD2A59106E
:10022000C220CA270A00C220CA273C050001CD22ED
:10023000C4244F1E0A004126D4270A00CD22C4241C
:100240004F0500014126D4273C0500014629C9205D
:100250003C050001C320CC244527D4220A004629AE
:10026000C9200A00C320CC244527D4223C05000124
:100270004629C920AF214126C9224E2A451E0A001F
:10028000D434E536F037BA1232326D1DB012E4398B
:100290000A00D434E536F037BA1232326D1D251912
:1002A000E4390A000C1EBC244E2B4529D3244F27C9
:1002B0002022451F3E00201020103C1EC724D227BC
:1002C0003E1F0A008C20552ACF26412AC9214F1DE6
:1002D00025326D0500010C26412B41224F1DA01235
:1002E000E4360A008C21452754294923D52341228D
:1002F0004F1D25326D0500000C2AC52650103A10FE
:100300002519AE18663B0A00CE24D6224C1DA01239
:1003100032173133760500000B108A110A12252896
:100320008B108A110A122528AB1EAF2939080A3C06
:10033000031DAA290108BF01BE000310BE0DBF0D99
:10034000BE08031DA829BF08031DA829AB14A929AD
:10035000AB108101B90A39080A3C031CB9012030ED
:10036000AB060C108A110A1225285730840083131B
:1003700000080319C9290130F800F701F70BBE295D
:10038000F80BBD294A30F700F70BC429C729800BA9
:10039000BB29080088100F3083160805F038880044
:1003A000831208150000081400000808F700080E62
:1003B0000F39F8007808DE0008100000081400006B
:1003C0000808F700080E0F39F8007808DD0008105B
:1003D0000F3083160805880083125E0EF700F03098
:1003E000F70577085D04F8007808DD00DD1BCB29F0
:1003F0005B1C88105B1888140000081100000810AE
:100400005C0EDD000F30DD055D08DE005E0EF039AC
:10041000F7000F3008057704880000000814102A40
:1004200008105C080F39DD005D08DE005E0EF03953
:10043000F7000F3008057704880000000814202A10
:10044000081008000030831688008700F730860007
:100450000910891009110C14C03083128B04831603
:100460000108C039303881008530831290000711AF
:100470000C3097000030F800053892007C3083166D
:1004800092008312810105309500870183160910BF
:10049000891009118312890186116430D700B521B2
:1004A0000F30831608058800081088100811831281
:1004B0008810081108100F30D700B5210130CC008A
:1004C0004C08033C031C762A0330DE005E0EF03934
:1004D000F7000F3008057704880000000814702A20
:1004E00008100530D700B521CC0A602A0230DE00A2
:1004F0005E0EF039F7000F30080577048800000021
:100500000814822A0810CC014C08033C031C912AD1
:100510004C083F20CD00DB014D08DC00CA21CC0A8D
:10052000842A8A150A12C32C8701831609108910A0
:1005300009118312890186110530950008008E305B
:10054000F7005108F8005008F900FA01F808031DF7
:10055000B32A7908F800F9010830F702F808031DFA
:10056000B32AF701BB2A0310F81BBA2AF90DF80DBC
:10057000F703B32AF8130800500803192C2BD800EE
:10058000540803192C2BD8070318CD2A7F30D80222
:10059000031C2C2B03192C2BD12A8130D8070318CC
:1005A0002C2B5808F700F801F901FA015108DC007A
:1005B000DC175208DB005308DA001830D800D901E4
:1005C0005A1CFA2A5708FA07031CEC2AF90A031DD9
:1005D000EC2AF80A0319D9175608F907031CF32A5D
:1005E000F80A0319D9175508D200D2175208F8078C
:1005F0000318D917D90DF80CF90CFA0CDC0CDB0C2C
:10060000DA0C0310D80BDF2A0130F70703182C2B64
:10061000F81B112BDC0DFA0DF90DF80DF70303197A
:100620002C2BDC1F222BFA0A031D222BF90A031D97
:10063000222BF80A031D222BF80CF90CFA0CF70AEE
:1006400003192C2B5108D9005508D906D91F2A2B7C
:10065000F817302BF813302BF701F801F901FA01E4
:1006600008008E30F7005008F7025108F9005208D0
:10067000F800F917F7080319482B0310F908031DB0
:10068000442BF8080319482BF90CF80CF70B3D2BF9
:10069000D11F4F2BF809F909F80A0319F90A0800C4
:1006A00056080C3A03195B2B063A0319632B023ADE
:1006B0000319792B7E2BDB010130DC00CA210230CB
:1006C000D700B521842B0130D7000230D800580B59
:1006D0006A2B6D2B4030D9006E2BD90101305702A7
:1006E000D90759088038DA00DB015A08DC00CA2132
:1006F000842BDB011030DC00CA21842B0130DB00AD
:100700005608DC00CA21842B0800831603178C17B7
:100710000C14000000000318B42B83120C087F395E
:100720000313D10003170D080313D20003170F089A
:100730000313D3005108D6005023520803178D002D
:100740000313530803178F0083168C170C14000033
:10075000000083120313D00BAE2BB12B83160317AB
:10076000B42BD22B8316031783120C0D0E0D7F3979
:100770000313D10003170D080313D20003170F084A
:100780000313D3005108D6005023520803178D00DD
:100790000313530803178F008D0A03198F0A0313DD
:1007A000D00B852B08002030511E3030D20050086D
:1007B000F700F71FE22BF709F70A7708D0002D3072
:1007C000D200D11778085008D6006430D7005708F7
:1007D000F80156020318EF2B5608F700FB2BF70120
:1007E0000830D800D60DF70D570877020318F70028
:1007F000F80DD80BF22B7708D00030307807D300F3
:100800005008D6000A30D7005708F80156020318DE
:100810000C2C5608F700182CF7010830D800D60D1C
:10082000F70D570877020318F700F80DD80B0F2CB7
:1008300030307707D50030307807D4005208F70001
:10084000D11D242CD11F5111511A312CD11F4C2CE8
:1008500051194C2C7708D300D1184C2C7708D400B0
:100860004C2C30305302031D4C2C7708D300203021
:10087000D200D11D3F2C5111D114D11FD1103030D5
:100880005402031D4C2C7708D4002030D300D11D16
:100890003F2CD110D11F5110511D512C5208D600A0
:1008A0005023D11C562C5308D6005023511C5B2CCE
:1008B0005408D60050235508D60050230800D10113
:1008C0003A08D0009F227A08D3007908D20078082D
:1008D000D1007708D000CD30D700CC30D6004C30D6
:1008E000D5007D30D400BC227A08D3007908D2002C
:1008F0007808D1007708D00031237808C800D101EA
:100900003A08D0009F227A08D3007908D2007808EC
:10091000D1007708D0006630D700D600D5007D30F2
:10092000D400BC227A08D3007908D2007808D1001C
:100930007708D00031237808C900D1013A08D000E7
:100940009F227A08D3007908D2007808D10077086E
:10095000D0009A30D7009930D6001930D5007C30BD
:10096000D400BC227A08D3007908D2007808D100DC
:100970007708D00031237808CA00D1013A08D000A6
:100980009F227A08D3007908D2007808D10077082E
:10099000D0009A30D7009930D6001930D5007E307B
:1009A000D400BC227A08D3007908D2007808D1009C
:1009B0007708D00031237808BB002D08013A0319CD
:1009C000E82C033A0319FE2C013A0319142D2A2DA1
:1009D000623003178D0001308F0003100C300313B9
:1009E000D00085233A08D0001F30D100D3236D30CA
:1009F000D60050230A30D60050232A2D6B3003171F
:100A00008D0001308F00031009300313D0008523BF
:100A10004808D0001F30D100D3236D30D6005023BA
:100A20000A30D60050232A2D723003178D00013072
:100A30008F0003100E300313D00085233B08D00035
:100A40001F30D100D3236D30D60050230A30D6009A
:100A500050232A2D0800D301D201541083161F10F1
:100A60009F101F159F111F1383121F179F178316A7
:100A70009F1783121F14510DF700F70DF70DF83073
:100A8000F7051F08C73977049F000130D700B5214B
:100A90001F151F19492D83161E088312D2001E0828
:100AA000D30054101F1D541454185A2D54101F1DD8
:100AB0005414542D1F105208F8005308F900080070
:100AC000F801F901F701FA015608031D6A2D5508CE
:100AD0000319842D1030D7000310D30DD40DF70D5A
:100AE000FA0D56087A02031D772D55087702031C6C
:100AF000802D5508F702031CFA035608FA02031466
:100B0000F80DF90DD70B6C2D0800831603178C1701
:100B10000C140000000083120C087F390319C92D42
:100B20000313D00003170D080313D10003170F0898
:100B30000313D2005008D6005023510803178D002C
:100B40000313520803178F0083168C170C14000030
:100B5000000083120C0D0E0D7F390319C92D0313EC
:100B6000D00003170D080313D10003170F08031358
:100B7000D2005008D6005023510803178D000313EC
:100B8000520803178F008D0A03198F0A0313852D4E
:100B9000031703130800B001B1012A102B10AA1388
:100BA000AA122A13AB112B12B501B60108002F08A7
:100BB000013A0319DF2D033A0319E52DEA2DAF01A0
:100BC000B1012A142B10AA17EA2D0130AF00B10190
:100BD0002B14EA2D08003108003A0319F62D013ACA
:100BE00003190E2E033A0319262E372E0C30D60089
:100BF0005023263003178D0001308F000313852505
:100C00002A3003178D0001308F0003138525AA1E9B
:100C10000D2E0130AE00AA12D725372E0C30D6008B
:100C200050232F3003178D0001308F0003138525CB
:100C3000323003178D0001308F0003138525AA1E63
:100C4000252E0230AE00AA12D725372E0C30D60042
:100C50005023383003178D0001308F000313852592
:100C6000AA1E362E0330AE00AA12D725372E080052
:100C70003108FC3E03189E2E043E9F2E0C30D600F9
:100C80005023053003178D0001308F000313852595
:100C90000B3003178D0001308F0003138525AA1E2A
:100CA000552E1230BC00AA12D7259E2E0C30D6002D
:100CB00050230E3003178D0001308F00031385255C
:100CC000133003178D0001308F0003138525AA1EF2
:100CD0006D2E1230BC00AA12D7259E2E0C30D600E5
:100CE0005023173003178D0001308F000313852523
:100CF0001B3003178D0001308F0003138525AA1EBA
:100D0000852E1930BC00AA12D7259E2E0C30D60095
:100D100050231E3003178D0001308F0003138525EB
:100D2000223003178D0001308F0003138525AA1E82
:100D30009D2E1A30BC00AA12D7259E2E08000A103C
:100D40008A140A1582073E2E562E6E2E862E3108E4
:100D5000FC3E03180D2F043E0E2F0C30D6005023FE
:100D6000E13003178D0000308F0003138525E63036
:100D700003178D0000308F0003138525AA1EC42E93
:100D80001930BA00AA12D7250D2F0C30D6005023E7
:100D9000EA3003178D0000308F0003138525EE30F5
:100DA00003178D0000308F0003138525AA1EDC2E4B
:100DB0001E30BA00AA12D7250D2F0C30D6005023B2
:100DC000F33003178D0000308F0003138525F830B2
:100DD00003178D0000308F0003138525AA1EF42E03
:100DE0002D30BA00AA12D7250D2F0C30D600502373
:100DF000FC3003178D0000308F0003138525003071
:100E000003178D0001308F0003138525AA1E0C2FB8
:100E10003730BA00AA12D7250D2F08000A148A14F9
:100E20000A158207AD2EC52EDD2EF52EAA1FBA2F6C
:100E30003008FA3E0318BA2F063EBD2F0C30D600FC
:100E400050239D3003178D0000308F00031385253C
:100E5000A43003178D0000308F0003138525AA1ED0
:100E6000382FAA122B10AF010130AD005F24CB2523
:100E7000BA2F0C30D6005023A83003178D00003055
:100E80008F0003138525AE3003178D0000308F00CF
:100E900003138525AA1E532FAA122B10AF0102306F
:100EA000AD005F24CB25BA2F0C30D6005023B330D1
:100EB00003178D0000308F0003138525BB30031707
:100EC0008D0000308F0003138525AA1E6E2FAA12F5
:100ED0002B10AF010330AD005F24CB25BA2F0C30AF
:100EE000D6005023C23003178D0000308F0003134B
:100EF0008525C93003178D0000308F000313852529
:100F0000AA1E872FAA122B140130AF00EB25BA2F8F
:100F10000C30D6005023D03003178D0000308F00E6
:100F200003138525D43003178D0000308F00031381
:100F30008525AA1EA02FAA122B140130AF00382637
:100F4000BA2F0C30D6005023D83003178D00003054
:100F50008F0003138525DC3003178D0000308F00D0
:100F600003138525AA1EB92FAA122B140130AF0036
:100F7000A726BA2F8A150A12BC280A148A140A1541
:100F800082071E2F392F542F6F2F882FA12F8316E2
:100F9000091089100911831289018611871307121C
:060FA0008712071708008C
:10100000861A0F28FA30D7008A11B5218A152A18B6
:101010000E282A14AA172A17AD010F28AA16061A95
:101020002F28FA30D7008A11B5218A159530031779
:101030008D0000308F008A11031385258A158A11CF
:1010400094228A152A13AA148A1194228A158A11C5
:10105000CB258A152A17AD018A1194228A15061B01
:101060006328FA30D7008A11B5218A152A152F086E
:1010700003193E28013A031947286328AA1BB00325
:101080003008FF3C031D46280530B00063282B18AC
:10109000B1033008033C031D54283108FF3C031DF5
:1010A00053280230B10062283008043C03195C2840
:1010B0003008053C031D62283108FF3C031D6228EF
:1010C0000330B1006328861B9328FA30D7008A11B9
:1010D000B5218A15AA152F0803197228013A031998
:1010E0007A289328AA1F7528B00A3008053C031CEB
:1010F000B00193282B1C7D28B10A3008033C031D46
:1011000086283108023C031CB10192283008043CB7
:1011100003198E283008053C031D92283108033C32
:10112000031CB10193282F0803199D28013A0319C4
:10113000A128033A0319BB28BC288A11162F8A1547
:10114000BC282B1CBA283008033A0319AE28073AEA
:101150000319B228013A0319B628BA288A11EB25D7
:101160008A15BA288A1138268A15BA288A11A7261C
:101170008A15BA28BC28BC280618E2280230D000FC
:10118000FA30D7008A11B5218A15D00BC0287330E8
:1011900003178D0000308F008A11031385258A15EF
:1011A0007B3003178D0000308F008A1103138525D3
:1011B0008A15AD018A1194228A158A11CB258A15C8
:1011C0002A172A16061CFC28AD08031DFC282A1E17
:1011D000FC28833003178D0000308F008A11031321
:1011E00085258A158C3003178D0000308F008A11F9
:1011F000031385258A152A128618112961300317D1
:101200008D0000308F008A11031385258A15AD01EA
:101210008A1194228A158A11CB258A151E30BA00AC
:101220002A17061926296A3003178D0000308F000F
:101230008A11031385258A15AD018A1194228A1516
:101240008A11CB258A151E30BA002A1739080A3CA4
:10125000031D3A290108BF01BE000310BE0DBF0DDA
:10126000BE08031D3829BF08031D3829AB143929CE
:10127000AB108101B90A39080A3C031CB901080006
:101280002A1B4529AD08031D47299F2A9F2A0130A3
:10129000CE004E084C02031C9F2A4D0B612A8A1176
:1012A0005F248A15B50A35083B3C03185929B60A4C
:1012B000B5012D08013A03196429033A03196D2970
:1012C000013A031976297F293A083602031D6C2951
:1012D0002A178A1194228A157F2948083602031D8D
:1012E00075292A178A1194228A157F293B0836020C
:1012F000031D7E292A178A1194228A157F2901301D
:10130000D7000230D800580B862989294030D900EF
:101310008A29D90101305702D90759088038DA00E3
:10132000DB015A08DC008A11CA218A153508093CFC
:10133000031CCE29403003178D0001308F000310AD
:1013400007300313D0008A1185238A153608D00090
:101350001130D1008A11D3238A156D30D6008A113D
:1013600050238A153A30D6008A1150238A1530301E
:10137000D6008A1150238A153508D0001F30D100BD
:101380008A11D3238A157330D6008A1150238A1507
:101390000A30D6008A1150238A15FC2949300317D8
:1013A0008D0001308F00031007300313D0008A1125
:1013B00085238A153608D0001130D1008A11D32335
:1013C0008A156D30D6008A1150238A153A30D6001E
:1013D0008A1150238A153508D0001130D1008A11A6
:1013E000D3238A157330D6008A1150238A150A3008
:1013F000D6008A1150238A153D08013A0319042AA0
:10140000013A03195F2A602A3C08D0000130D1005C
:101410008A112B258A157908C5007808C400033085
:10142000D200FF30D100D4015008D3001030D500D5
:10143000F701FA01D20CD10C031C242A5308F70738
:101440000318FA0A5408FA07FA0CF70CF90CF80C0E
:10145000D50B1A2A7908D2007808D1007908D4006F
:101460007808D300D6016430D5008A1160258A152A
:101470007908C7007808C60045084702031C482AB7
:10148000031D462A460844020318482A2B11492AFC
:101490002B1500302B190130F800F808031D562ACF
:1014A0002A1B562A8611071487145E2AB80A3808A0
:1014B0000C3C031D5E2A07108710B801602A602AC1
:1014C0008A2A523003178D0001308F008A110313CE
:1014D00085258A150130D7000230D800580B712AB3
:1014E000742A4030D900752AD90101305702D90732
:1014F00059088038DA00DB015A08DC008A11CA2159
:101500008A155B3003178D0001308F008A11031399
:1015100085258A15CF014F080A3C031C9D2A64309B
:10152000D7008A11B5218A1500202A1B9A2AAD08F6
:10153000031D9B2A9F2ACF0A8B2ACE0A4929CE0156
:1015400008000130BD00480836020318F62A2A1B9D
:10155000F62A2A1BB62A8611071611309500861125
:101560002B160530CC000130CD0040212A1BC52AA6
:101570008A11C7278A15AB18C52A8A11C7278A1569
:101580000130CC00CD004021BB2A2A1BCF2A8A1172
:10159000C7278A150230CC000130CD0040212A1B1C
:1015A000DC2A861187161130950086112B1605301E
:1015B000CC000130CD0040212A1BEB2A8A11C7271D
:1015C0008A15AB18EB2A8A11C7278A150130CC007F
:1015D000CD004021E12A2A1BF52A8A11C7278A1546
:1015E0000230CC000130CD004021A32A2D08023C5E
:1015F000031D002B2A13AD01BD018A1194228A1507
:1016000008002D0B072B49084807CB00312B2D086C
:10161000033C031D312BD1013A08D0008A119F22CF
:101620008A157A08D3007908D2007808D1007708A3
:10163000D0009A30D7009930D6001930D5007C30D0
:10164000D4008A11BC228A157A08D3007908D20006
:101650007808D1007708D0008A1131238A157808DC
:10166000CB00B7013708023C031C1D2CBD012D0B1C
:10167000502B37080319432B013A0319472B033A20
:1016800003194B2B4F2B04304807CB004F2B08304E
:101690004807CB004F2B0D304807CB004F2B672B53
:1016A0002D08033C031D672B370803195E2B013AF5
:1016B0000319612B033A0319642B672B0430CB0009
:1016C000672B0830CB00672B0D30CB00672B113018
:1016D000CC000130D1008A112B258A157908C5006C
:1016E0007808C4000330D200FF30D100D4014C0888
:1016F000D3001030D500F701FA01D20CD10C031C35
:10170000872B5308F7070318FA0A5408FA07FA0C4C
:10171000F70CF90CF80CD50B7D2B7908CE00780866
:10172000CD007908D4007808D300D6016430D50004
:101730008A1160258A157908C7007808C60045080F
:101740004702031CAB2B031DA92B44084602031CB4
:10175000AB2B2B15AC2B2B1100302B190130F800C3
:10176000F808031DC12B2A1BC12B861107178611F0
:1017700089148316891001308312CC00CD004021DA
:10178000672B0130BD008A11C7278A154B08360226
:101790000318192C2A1B192C2A1BD92B8611071662
:1017A0001130950086112B160530CC000130CD008C
:1017B00040212A1BE82B8A11C7278A15AB18E82B72
:1017C0008A11C7278A150130CC00CD004021DE2BBD
:1017D0002A1BF22B8A11C7278A150230CC00013050
:1017E000CD0040212A1BFF2B861187161130950052
:1017F00086112B160530CC000130CD0040212A1B6C
:101800000E2C8A11C7278A15AB180E2C8A11C727F0
:101810008A150130CC00CD004021042C2A1B182C45
:101820008A11C7278A150230CC000130CD00402133
:10183000C62B07108710B70A322B07108710BD017F
:101840002D0B252C3A08CB002B2C2D08033C031D17
:101850002B2C3B08CB001130CC000130D1008A1179
:101860002B258A157908C5007808C4000330D200FA
:10187000FF30D100D4014C08D3001030D500F7015F
:10188000FA01D20CD10C031C4B2C5308F707031898
:10189000FA0A5408FA07FA0CF70CF90CF80CD50BF5
:1018A000412C7908CE007808CD007908D40078085A
:1018B000D300D6016430D5008A1160258A157908D5
:1018C000C7007808C60045084702031C6F2C031D9B
:1018D0006D2C44084602031C6F2C2B15702C2B1109
:1018E00000302B190130F800F808031D832C2A1B47
:1018F000832C861189148316891001308312CC0041
:10190000CD0040212B2C4B0836020318A52C2A1B96
:10191000A52C071087102A1BA32C861107168914E3
:10192000831689104E30831295001708CF3930384E
:101930009700AB152B12861107173C30CC000130F5
:10194000CD004021A42CA52C832C2A13AD01BD0170
:101950008A1194228A150800840183131F3083059D
:10196000B9011E30BA001930BC00BD01AB1283169C
:101970001F149F141F159F1107309C008312A8018C
:10198000A9018A11222A8A152A14AA172A17AD0139
:101990008A1194228A15861107112D08023A03191B
:1019A000DB2C013A0319DE2C023A0319E12C053A2B
:1019B0000319E52CE62CA122AD01ED2C0123AD018C
:1019C000ED2CA1220123AD01ED2CED2C0020643083
:0E19D000D7008A11B5218A15ED2CCD2C6300AD
:02400E00713F00
:00000001FF
;PIC16F877A
;CRC=CBD4  CREATED="23-sept.-19 11:21"
